{
  "contractName": "Lock",
  "abi": [
    {
      "anonymous": false,
      "inputs": [
        {
          "indexed": false,
          "internalType": "address",
          "name": "beneficiary",
          "type": "address"
        },
        {
          "indexed": false,
          "internalType": "uint256",
          "name": "value",
          "type": "uint256"
        },
        {
          "indexed": false,
          "internalType": "uint256",
          "name": "timeStamp",
          "type": "uint256"
        }
      ],
      "name": "FundsReleasedToBeneficiary",
      "type": "event"
    },
    {
      "anonymous": false,
      "inputs": [
        {
          "indexed": false,
          "internalType": "address",
          "name": "tokenAddress",
          "type": "address"
        },
        {
          "indexed": false,
          "internalType": "address",
          "name": "beneficiary",
          "type": "address"
        },
        {
          "indexed": false,
          "internalType": "uint256",
          "name": "duration",
          "type": "uint256"
        },
        {
          "indexed": false,
          "internalType": "uint256",
          "name": "periods",
          "type": "uint256"
        }
      ],
      "name": "Initialized",
      "type": "event"
    },
    {
      "anonymous": false,
      "inputs": [
        {
          "indexed": true,
          "internalType": "address",
          "name": "previousOwner",
          "type": "address"
        },
        {
          "indexed": true,
          "internalType": "address",
          "name": "newOwner",
          "type": "address"
        }
      ],
      "name": "OwnershipTransferred",
      "type": "event"
    },
    {
      "anonymous": false,
      "inputs": [
        {
          "indexed": false,
          "internalType": "uint256",
          "name": "paymentSize",
          "type": "uint256"
        },
        {
          "indexed": false,
          "internalType": "uint256",
          "name": "startTime",
          "type": "uint256"
        },
        {
          "indexed": false,
          "internalType": "uint256",
          "name": "paymentsRemaining",
          "type": "uint256"
        }
      ],
      "name": "PaymentsUpdatedOnDeposit",
      "type": "event"
    },
    {
      "inputs": [],
      "name": "owner",
      "outputs": [
        {
          "internalType": "address",
          "name": "",
          "type": "address"
        }
      ],
      "stateMutability": "view",
      "type": "function"
    },
    {
      "inputs": [],
      "name": "renounceOwnership",
      "outputs": [],
      "stateMutability": "nonpayable",
      "type": "function"
    },
    {
      "inputs": [
        {
          "internalType": "address",
          "name": "newOwner",
          "type": "address"
        }
      ],
      "name": "transferOwnership",
      "outputs": [],
      "stateMutability": "nonpayable",
      "type": "function"
    },
    {
      "inputs": [
        {
          "internalType": "address",
          "name": "tokenAddress",
          "type": "address"
        },
        {
          "internalType": "address",
          "name": "beneficiary",
          "type": "address"
        },
        {
          "internalType": "uint256",
          "name": "duration",
          "type": "uint256"
        },
        {
          "internalType": "uint256",
          "name": "durationMultiple",
          "type": "uint256"
        },
        {
          "internalType": "uint256",
          "name": "p",
          "type": "uint256"
        }
      ],
      "name": "initialize",
      "outputs": [],
      "stateMutability": "nonpayable",
      "type": "function"
    },
    {
      "inputs": [
        {
          "internalType": "uint256",
          "name": "amount",
          "type": "uint256"
        }
      ],
      "name": "deposit",
      "outputs": [],
      "stateMutability": "nonpayable",
      "type": "function"
    },
    {
      "inputs": [],
      "name": "getElapsedReward",
      "outputs": [
        {
          "internalType": "uint256",
          "name": "",
          "type": "uint256"
        },
        {
          "internalType": "uint256",
          "name": "",
          "type": "uint256"
        },
        {
          "internalType": "uint256",
          "name": "",
          "type": "uint256"
        }
      ],
      "stateMutability": "view",
      "type": "function"
    },
    {
      "inputs": [
        {
          "internalType": "address",
          "name": "beneficiary",
          "type": "address"
        }
      ],
      "name": "changeBeneficiary",
      "outputs": [],
      "stateMutability": "nonpayable",
      "type": "function"
    },
    {
      "inputs": [],
      "name": "beneficiary",
      "outputs": [
        {
          "internalType": "address",
          "name": "",
          "type": "address"
        }
      ],
      "stateMutability": "view",
      "type": "function"
    },
    {
      "inputs": [],
      "name": "release",
      "outputs": [],
      "stateMutability": "nonpayable",
      "type": "function"
    }
  ],
  "bytecode": "0x608060405260006006556000600755600060085534801561001f57600080fd5b5060006100306100d360201b60201c565b9050806000806101000a81548173ffffffffffffffffffffffffffffffffffffffff021916908373ffffffffffffffffffffffffffffffffffffffff1602179055508073ffffffffffffffffffffffffffffffffffffffff16600073ffffffffffffffffffffffffffffffffffffffff167f8be0079c531659141344cd1fd0a4f28419497f9722a3daafe3b4186f6b6457e060405160405180910390a3506100db565b600033905090565b6115f8806100ea6000396000f3fe608060405234801561001057600080fd5b50600436106100935760003560e01c80638da5cb5b116100665780638da5cb5b1461010c578063b6b55f2514610140578063d13f90b41461016e578063dc070657146101f0578063f2fde38b1461023457610093565b806338af3eed146100985780636041344f146100cc578063715018a6146100f857806386d1a69f14610102575b600080fd5b6100a0610278565b604051808273ffffffffffffffffffffffffffffffffffffffff16815260200191505060405180910390f35b6100d46102a2565b60405180848152602001838152602001828152602001935050505060405180910390f35b61010061043f565b005b61010a6105c5565b005b610114610825565b604051808273ffffffffffffffffffffffffffffffffffffffff16815260200191505060405180910390f35b61016c6004803603602081101561015657600080fd5b810190808035906020019092919050505061084e565b005b6101ee600480360360a081101561018457600080fd5b81019080803573ffffffffffffffffffffffffffffffffffffffff169060200190929190803573ffffffffffffffffffffffffffffffffffffffff169060200190929190803590602001909291908035906020019092919080359060200190929190505050610af3565b005b6102326004803603602081101561020657600080fd5b81019080803573ffffffffffffffffffffffffffffffffffffffff169060200190929190505050610ef9565b005b6102766004803603602081101561024a57600080fd5b81019080803573ffffffffffffffffffffffffffffffffffffffff169060200190929190505050611060565b005b6000600360009054906101000a900473ffffffffffffffffffffffffffffffffffffffff16905090565b60008060008060015414156102c457600060075460065492509250925061043a565b60006001546007544203816102d557fe5b04905060008114156102f55760006007546006549350935093505061043a565b60065481116103045780610308565b6006545b9050600042905060006103268360065461126b90919063ffffffff16565b90506000600260009054906101000a900473ffffffffffffffffffffffffffffffffffffffff1673ffffffffffffffffffffffffffffffffffffffff166370a08231306040518263ffffffff1660e01b8152600401808273ffffffffffffffffffffffffffffffffffffffff16815260200191505060206040518083038186803b1580156103b357600080fd5b505afa1580156103c7573d6000803e3d6000fd5b505050506040513d60208110156103dd57600080fd5b810190808051906020019092919050505090506000610407856005546112b590919063ffffffff16565b905061042c828211610419578161041b565b825b60085461133b90919063ffffffff16565b848497509750975050505050505b909192565b6104476113c3565b73ffffffffffffffffffffffffffffffffffffffff1660008054906101000a900473ffffffffffffffffffffffffffffffffffffffff1673ffffffffffffffffffffffffffffffffffffffff1614610507576040517f08c379a00000000000000000000000000000000000000000000000000000000081526004018080602001828103825260208152602001807f4f776e61626c653a2063616c6c6572206973206e6f7420746865206f776e657281525060200191505060405180910390fd5b600073ffffffffffffffffffffffffffffffffffffffff1660008054906101000a900473ffffffffffffffffffffffffffffffffffffffff1673ffffffffffffffffffffffffffffffffffffffff167f8be0079c531659141344cd1fd0a4f28419497f9722a3daafe3b4186f6b6457e060405160405180910390a360008060006101000a81548173ffffffffffffffffffffffffffffffffffffffff021916908373ffffffffffffffffffffffffffffffffffffffff160217905550565b600754421015610620576040517f08c379a00000000000000000000000000000000000000000000000000000000081526004018080602001828103825260328152602001806114b46032913960400191505060405180910390fd5b6106286113cb565b60006008549050600060088190555060008111156107a357600260009054906101000a900473ffffffffffffffffffffffffffffffffffffffff1673ffffffffffffffffffffffffffffffffffffffff1663a9059cbb600360009054906101000a900473ffffffffffffffffffffffffffffffffffffffff16836040518363ffffffff1660e01b8152600401808373ffffffffffffffffffffffffffffffffffffffff16815260200182815260200192505050602060405180830381600087803b1580156106f557600080fd5b505af1158015610709573d6000803e3d6000fd5b505050506040513d602081101561071f57600080fd5b81019080805190602001909291905050506107a2576040517f08c379a00000000000000000000000000000000000000000000000000000000081526004018080602001828103825260148152602001807f72656c656173652066756e6473206661696c656400000000000000000000000081525060200191505060405180910390fd5b5b7f9bd82e051713c4f9fbc39346b2d6901e1c5250f750bb526781f116d15d46f0f2600360009054906101000a900473ffffffffffffffffffffffffffffffffffffffff168242604051808473ffffffffffffffffffffffffffffffffffffffff168152602001838152602001828152602001935050505060405180910390a150565b60008060009054906101000a900473ffffffffffffffffffffffffffffffffffffffff16905090565b600260009054906101000a900473ffffffffffffffffffffffffffffffffffffffff1673ffffffffffffffffffffffffffffffffffffffff166323b872dd3330846040518463ffffffff1660e01b8152600401808473ffffffffffffffffffffffffffffffffffffffff1681526020018373ffffffffffffffffffffffffffffffffffffffff1681526020018281526020019350505050602060405180830381600087803b1580156108ff57600080fd5b505af1158015610913573d6000803e3d6000fd5b505050506040513d602081101561092957600080fd5b81019080805190602001909291905050506109ac576040517f08c379a000000000000000000000000000000000000000000000000000000000815260040180806020018281038252600f8152602001807f7472616e73666572206661696c6564000000000000000000000000000000000081525060200191505060405180910390fd5b6000600260009054906101000a900473ffffffffffffffffffffffffffffffffffffffff1673ffffffffffffffffffffffffffffffffffffffff166370a08231306040518263ffffffff1660e01b8152600401808273ffffffffffffffffffffffffffffffffffffffff16815260200191505060206040518083038186803b158015610a3757600080fd5b505afa158015610a4b573d6000803e3d6000fd5b505050506040513d6020811015610a6157600080fd5b8101908080519060200190929190505050905060006006541415610a9057600454600681905550426007819055505b6006548181610a9b57fe5b046005819055507f809ddd73fba007b10377633695958cc9ab0c34b75ac62ee2926b99a57f4db82960055460075460065460405180848152602001838152602001828152602001935050505060405180910390a15050565b610afb6113c3565b73ffffffffffffffffffffffffffffffffffffffff1660008054906101000a900473ffffffffffffffffffffffffffffffffffffffff1673ffffffffffffffffffffffffffffffffffffffff1614610bbb576040517f08c379a00000000000000000000000000000000000000000000000000000000081526004018080602001828103825260208152602001807f4f776e61626c653a2063616c6c6572206973206e6f7420746865206f776e657281525060200191505060405180910390fd5b610bc36105c5565b600060065414610c1e576040517f08c379a000000000000000000000000000000000000000000000000000000000815260040180806020018281038252603081526020018061154e6030913960400191505060405180910390fd5b600083118015610c2e5750600081115b610c83576040517f08c379a000000000000000000000000000000000000000000000000000000000815260040180806020018281038252602181526020018061152d6021913960400191505060405180910390fd5b84600260006101000a81548173ffffffffffffffffffffffffffffffffffffffff021916908373ffffffffffffffffffffffffffffffffffffffff16021790555083600360006101000a81548173ffffffffffffffffffffffffffffffffffffffff021916908373ffffffffffffffffffffffffffffffffffffffff160217905550600880811115610d1157fe5b8311610e665760006008811115610d2457fe5b831415610d3a5760018202600181905550610e61565b60016008811115610d4757fe5b831415610d5d57603c8202600181905550610e60565b60026008811115610d6a57fe5b831415610d8157610e108202600181905550610e5f565b60036008811115610d8e57fe5b831415610da657620151808202600181905550610e5e565b60046008811115610db357fe5b831415610dcb5762093a808202600181905550610e5d565b60056008811115610dd857fe5b831415610df05762278d008202600181905550610e5c565b60066008811115610dfd57fe5b831415610e16576301dfe2008202600181905550610e5b565b60076008811115610e2357fe5b831415610e3b576277f8808202600181905550610e5a565b600880811115610e4757fe5b831415610e595762eff1006001819055505b5b5b5b5b5b5b5b5b610e6e565b826001819055505b806004819055507f80a4f91a1411c5f4e795a325f8a70cfa7b44e183d7210a793e00a24805663881858560015484604051808573ffffffffffffffffffffffffffffffffffffffff1681526020018473ffffffffffffffffffffffffffffffffffffffff16815260200183815260200182815260200194505050505060405180910390a15050505050565b610f016113c3565b73ffffffffffffffffffffffffffffffffffffffff1660008054906101000a900473ffffffffffffffffffffffffffffffffffffffff1673ffffffffffffffffffffffffffffffffffffffff1614610fc1576040517f08c379a00000000000000000000000000000000000000000000000000000000081526004018080602001828103825260208152602001807f4f776e61626c653a2063616c6c6572206973206e6f7420746865206f776e657281525060200191505060405180910390fd5b60006006541461101c576040517f08c379a000000000000000000000000000000000000000000000000000000000815260040180806020018281038252604581526020018061157e6045913960600191505060405180910390fd5b80600360006101000a81548173ffffffffffffffffffffffffffffffffffffffff021916908373ffffffffffffffffffffffffffffffffffffffff16021790555050565b6110686113c3565b73ffffffffffffffffffffffffffffffffffffffff1660008054906101000a900473ffffffffffffffffffffffffffffffffffffffff1673ffffffffffffffffffffffffffffffffffffffff1614611128576040517f08c379a00000000000000000000000000000000000000000000000000000000081526004018080602001828103825260208152602001807f4f776e61626c653a2063616c6c6572206973206e6f7420746865206f776e657281525060200191505060405180910390fd5b600073ffffffffffffffffffffffffffffffffffffffff168173ffffffffffffffffffffffffffffffffffffffff1614156111ae576040517f08c379a00000000000000000000000000000000000000000000000000000000081526004018080602001828103825260268152602001806114e66026913960400191505060405180910390fd5b8073ffffffffffffffffffffffffffffffffffffffff1660008054906101000a900473ffffffffffffffffffffffffffffffffffffffff1673ffffffffffffffffffffffffffffffffffffffff167f8be0079c531659141344cd1fd0a4f28419497f9722a3daafe3b4186f6b6457e060405160405180910390a3806000806101000a81548173ffffffffffffffffffffffffffffffffffffffff021916908373ffffffffffffffffffffffffffffffffffffffff16021790555050565b60006112ad83836040518060400160405280601e81526020017f536166654d6174683a207375627472616374696f6e206f766572666c6f7700008152506113f3565b905092915050565b6000808314156112c85760009050611335565b60008284029050828482816112d957fe5b0414611330576040517f08c379a000000000000000000000000000000000000000000000000000000000815260040180806020018281038252602181526020018061150c6021913960400191505060405180910390fd5b809150505b92915050565b6000808284019050838110156113b9576040517f08c379a000000000000000000000000000000000000000000000000000000000815260040180806020018281038252601b8152602001807f536166654d6174683a206164646974696f6e206f766572666c6f77000000000081525060200191505060405180910390fd5b8091505092915050565b600033905090565b6113d36102a2565b600860006007600060066000869190505585919050558491905055505050565b60008383111582906114a0576040517f08c379a00000000000000000000000000000000000000000000000000000000081526004018080602001828103825283818151815260200191508051906020019080838360005b8381101561146557808201518184015260208101905061144a565b50505050905090810190601f1680156114925780820380516001836020036101000a031916815260200191505b509250505060405180910390fd5b506000838503905080915050939250505056fe546f6b656e54696d656c6f636b3a2063757272656e742074696d65206973206265666f72652072656c656173652074696d654f776e61626c653a206e6577206f776e657220697320746865207a65726f2061646472657373536166654d6174683a206d756c7469706c69636174696f6e206f766572666c6f7765706f636820706172616d6574657273206d75737420626520706f73697469766563616e6e6f7420696e697469616c697a6520647572696e67206163746976652076657374696e67207363686564756c65546f6b656e54696d656c6f636b3a2063616e6e6f74206368616e67652062656e6566696369617279207768696c6520746f6b656e2062616c616e636520706f736974697665a26469706673582212200dd088f2cd1cc6c8cc0fca6bb35dc986abde572cbdfd3fd21082907c12f345e564736f6c63430007000033",
  "immutableReferences": {},
  "source": "// SPDX-License-Identifier: MIT\n\npragma solidity ^0.7.0;\n\n\nlibrary Address {\n    function isContract(address account) internal view returns (bool) {\n        // According to EIP-1052, 0x0 is the value returned for not-yet created accounts\n        // and 0xc5d2460186f7233c927e7db2dcc703c0e500b653ca82273b7bfad8045d85a470 is returned\n        // for accounts without code, i.e. `keccak256('')`\n        bytes32 codehash;\n        bytes32 accountHash = 0xc5d2460186f7233c927e7db2dcc703c0e500b653ca82273b7bfad8045d85a470;\n        // solhint-disable-next-line no-inline-assembly\n        assembly { codehash := extcodehash(account) }\n        return (codehash != accountHash && codehash != 0x0);\n    }\n\n    function sendValue(address payable recipient, uint256 amount) internal {\n        require(address(this).balance >= amount, \"Address: insufficient balance\");\n\n        // solhint-disable-next-line avoid-low-level-calls, avoid-call-value\n        (bool success, ) = recipient.call{ value: amount }(\"\");\n        require(success, \"Address: unable to send value, recipient may have reverted\");\n    }\n\n    function functionCall(address target, bytes memory data) internal returns (bytes memory) {\n      return functionCall(target, data, \"Address: low-level call failed\");\n    }\n\n    /**\n     * @dev Same as {xref-Address-functionCall-address-bytes-}[`functionCall`], but with\n     * `errorMessage` as a fallback revert reason when `target` reverts.\n     *\n     * _Available since v3.1._\n     */\n    function functionCall(address target, bytes memory data, string memory errorMessage) internal returns (bytes memory) {\n        return _functionCallWithValue(target, data, 0, errorMessage);\n    }\n\n    function functionCallWithValue(address target, bytes memory data, uint256 value) internal returns (bytes memory) {\n        return functionCallWithValue(target, data, value, \"Address: low-level call with value failed\");\n    }\n\n    function functionCallWithValue(address target, bytes memory data, uint256 value, string memory errorMessage) internal returns (bytes memory) {\n        require(address(this).balance >= value, \"Address: insufficient balance for call\");\n        return _functionCallWithValue(target, data, value, errorMessage);\n    }\n\n    function _functionCallWithValue(address target, bytes memory data, uint256 weiValue, string memory errorMessage) private returns (bytes memory) {\n        require(isContract(target), \"Address: call to non-contract\");\n\n        // solhint-disable-next-line avoid-low-level-calls\n        (bool success, bytes memory returndata) = target.call{ value: weiValue }(data);\n        if (success) {\n            return returndata;\n        } else {\n            // Look for revert reason and bubble it up if present\n            if (returndata.length > 0) {\n                // The easiest way to bubble the revert reason is using memory via assembly\n\n                // solhint-disable-next-line no-inline-assembly\n                assembly {\n                    let returndata_size := mload(returndata)\n                    revert(add(32, returndata), returndata_size)\n                }\n            } else {\n                revert(errorMessage);\n            }\n        }\n    }\n}\n\nlibrary SafeMath {\n    \n    function add(uint256 a, uint256 b) internal pure returns (uint256) {\n        uint256 c = a + b;\n        require(c >= a, \"SafeMath: addition overflow\");\n\n        return c;\n    }\n\n    function sub(uint256 a, uint256 b) internal pure returns (uint256) {\n        return sub(a, b, \"SafeMath: subtraction overflow\");\n    }\n    function sub(uint256 a, uint256 b, string memory errorMessage) internal pure returns (uint256) {\n        require(b <= a, errorMessage);\n        uint256 c = a - b;\n\n        return c;\n    }\n\n    function mul(uint256 a, uint256 b) internal pure returns (uint256) {\n        // Gas optimization: this is cheaper than requiring 'a' not being zero, but the\n        // benefit is lost if 'b' is also tested.\n        // See: https://github.com/OpenZeppelin/openzeppelin-contracts/pull/522\n        if (a == 0) {\n            return 0;\n        }\n\n        uint256 c = a * b;\n        require(c / a == b, \"SafeMath: multiplication overflow\");\n\n        return c;\n    }\n    function div(uint256 a, uint256 b) internal pure returns (uint256) {\n        return div(a, b, \"SafeMath: division by zero\");\n    }\n\n    function div(uint256 a, uint256 b, string memory errorMessage) internal pure returns (uint256) {\n        require(b > 0, errorMessage);\n        uint256 c = a / b;\n        // assert(a == b * c + a % b); // There is no case in which this doesn't hold\n\n        return c;\n    }\n\n    function mod(uint256 a, uint256 b) internal pure returns (uint256) {\n        return mod(a, b, \"SafeMath: modulo by zero\");\n    }\n    function mod(uint256 a, uint256 b, string memory errorMessage) internal pure returns (uint256) {\n        require(b != 0, errorMessage);\n        return a % b;\n    }\n}\n\ninterface IERC20 {\n    function totalSupply() external view returns (uint256);\n    function balanceOf(address account) external view returns (uint256);\n    function transfer(address recipient, uint256 amount) external returns (bool);\n    function allowance(address owner, address spender) external view returns (uint256);\n    function approve(address spender, uint256 amount) external returns (bool);\n    function transferFrom(address sender, address recipient, uint256 amount) external returns (bool);\n    event Transfer(address indexed from, address indexed to, uint256 value);\n    event Approval(address indexed owner, address indexed spender, uint256 value);\n}\n\nabstract contract Context {\n    function _msgSender() internal view virtual returns (address payable) {\n        return msg.sender;\n    }\n\n    function _msgData() internal view virtual returns (bytes memory) {\n        this; // silence state mutability warning without generating bytecode - see https://github.com/ethereum/solidity/issues/2691\n        return msg.data;\n    }\n}\n\ncontract Ownable is Context {\n    address private _owner;\n\n    event OwnershipTransferred(address indexed previousOwner, address indexed newOwner);\n\n    constructor () {\n        address msgSender = _msgSender();\n        _owner = msgSender;\n        emit OwnershipTransferred(address(0), msgSender);\n    }\n\n    function owner() public view returns (address) {\n        return _owner;\n    }\n    modifier onlyOwner() {\n        require(_owner == _msgSender(), \"Ownable: caller is not the owner\");\n        _;\n    }\n\n    function renounceOwnership() public virtual onlyOwner {\n        emit OwnershipTransferred(_owner, address(0));\n        _owner = address(0);\n    }\n\n    function transferOwnership(address newOwner) public virtual onlyOwner {\n        require(newOwner != address(0), \"Ownable: new owner is the zero address\");\n        emit OwnershipTransferred(_owner, newOwner);\n        _owner = newOwner;\n    }\n}\n\n/**\n * @dev A token holder contract that will allow a beneficiary to extract the\n * tokens at predefined intervals. Tokens not claimed at payment epochs accumulate\n * Modified version of Openzeppelin's TokenTimeLock\n */\ncontract Lock is Ownable {\n    using SafeMath for uint;\n    enum period {\n        second,\n        minute,\n        hour,\n        day,\n        week,\n        month, //inaccurate, assumes 30 day month, subject to drift\n        year,\n        quarter,//13 weeks\n        biannual//26 weeks\n    }\n    \n    //The length in seconds for each epoch between payments\n    uint epochLength;\n    // ERC20 basic token contract being held\n    IERC20 private _token;\n\n    // beneficiary of tokens after they are released\n    address private _beneficiary;\n\n    uint periods;\n\n    //the size of periodic payments\n    uint paymentSize;\n    uint paymentsRemaining =0;\n    uint startTime =0;\n    uint beneficiaryBalance = 0;\n\n    function initialize(address tokenAddress, address beneficiary, uint duration,uint durationMultiple,uint p)  public onlyOwner{\n        release();\n        require(paymentsRemaining == 0, 'cannot initialize during active vesting schedule');\n        require(duration>0 && p>0, 'epoch parameters must be positive');\n        _token = IERC20(tokenAddress);\n        _beneficiary = beneficiary;\n        if(duration<=uint(period.biannual)){\n         \n            if(duration == uint(period.second)){\n                epochLength = durationMultiple * 1 seconds;\n            }else if(duration == uint(period.minute)){\n                epochLength = durationMultiple * 1 minutes;\n            }\n            else if(duration == uint(period.hour)){\n                epochLength =  durationMultiple *1 hours;\n            }else if(duration == uint(period.day)){\n                epochLength =  durationMultiple *1 days;\n            }\n            else if(duration == uint(period.week)){\n                epochLength =  durationMultiple *1 weeks;\n            }else if(duration == uint(period.month)){\n                epochLength =  durationMultiple *30 days;\n            }else if(duration == uint(period.year)){\n                epochLength =  durationMultiple *52 weeks;\n            }else if(duration == uint(period.quarter)){\n                epochLength =  durationMultiple *13 weeks;\n            }\n            else if(duration == uint(period.biannual)){\n                epochLength = 26 weeks;\n            }\n        }\n        else{\n                epochLength = duration; //custom value\n            }\n            periods = p;\n\n        emit Initialized(tokenAddress,beneficiary,epochLength,p);\n    }\n\n    function deposit (uint amount) public { //remember to ERC20.approve\n         require (_token.transferFrom(msg.sender,address(this),amount),'transfer failed');\n         uint balance = _token.balanceOf(address(this));\n         if(paymentsRemaining==0)\n         {\n             paymentsRemaining = periods;\n             startTime = block.timestamp;\n         }\n         paymentSize = balance/paymentsRemaining;\n         emit PaymentsUpdatedOnDeposit(paymentSize,startTime,paymentsRemaining);\n    }\n\n    function getElapsedReward() public view returns (uint,uint,uint){\n         if(epochLength == 0)\n            return (0, startTime,paymentsRemaining);\n        uint elapsedEpochs = (block.timestamp - startTime)/epochLength;\n        if(elapsedEpochs==0)\n            return (0, startTime,paymentsRemaining);\n        elapsedEpochs = elapsedEpochs>paymentsRemaining?paymentsRemaining:elapsedEpochs;\n        uint newStartTime = block.timestamp;\n        uint newPaymentsRemaining = paymentsRemaining.sub(elapsedEpochs);\n        uint balance  =_token.balanceOf(address(this));\n        uint accumulatedFunds = paymentSize.mul(elapsedEpochs);\n         return (beneficiaryBalance.add(accumulatedFunds>balance?balance:accumulatedFunds),newStartTime,newPaymentsRemaining);\n    } \n\n    function updateBeneficiaryBalance() private {\n        (beneficiaryBalance,startTime, paymentsRemaining) = getElapsedReward();\n    }\n\n    function changeBeneficiary (address beneficiary) public onlyOwner{\n        require (paymentsRemaining == 0, 'TokenTimelock: cannot change beneficiary while token balance positive');\n        _beneficiary = beneficiary;\n    }\n    /**\n     * @return the beneficiary of the tokens.\n     */\n    function beneficiary() public view returns (address) {\n        return _beneficiary;\n    }\n\n    /**\n     * @notice Transfers tokens held by timelock to beneficiary.\n     */\n    function release() public {\n        // solhint-disable-next-line not-rely-on-time\n        require(block.timestamp >= startTime, \"TokenTimelock: current time is before release time\");\n        updateBeneficiaryBalance();\n        uint amountToSend = beneficiaryBalance;\n        beneficiaryBalance = 0;\n        if(amountToSend>0)\n            require(_token.transfer(_beneficiary,amountToSend),'release funds failed');\n        emit FundsReleasedToBeneficiary(_beneficiary,amountToSend,block.timestamp);\n    }\n\n    event PaymentsUpdatedOnDeposit(uint paymentSize,uint startTime, uint paymentsRemaining);\n    event Initialized (address tokenAddress, address beneficiary, uint duration,uint periods);\n    event FundsReleasedToBeneficiary(address beneficiary, uint value, uint timeStamp);\n}",
  "sourcePath": "/Volumes/Work/Code/token-installation-timelock/contracts/Lock.sol",
  "compiler": {
    "name": "solc",
    "version": "0.7.0+commit.9e61f92b.Emscripten.clang"
  },
  "schemaVersion": "3.3.2",
  "updatedAt": "2020-11-18T11:17:56.869Z",
  "devdoc": {
    "details": "A token holder contract that will allow a beneficiary to extract the tokens at predefined intervals. Tokens not claimed at payment epochs accumulate Modified version of Openzeppelin's TokenTimeLock",
    "kind": "dev",
    "methods": {
      "beneficiary()": {
        "returns": {
          "_0": "the beneficiary of the tokens."
        }
      }
    },
    "version": 1
  },
  "userdoc": {
    "kind": "user",
    "methods": {
      "release()": {
        "notice": "Transfers tokens held by timelock to beneficiary."
      }
    },
    "version": 1
  }
}